:100000000C9434000C9451000C9451000C94510049
:100010000C9451000C9451000C9451000C9451001C
:100020000C9451000C9451000C9451000C9451000C
:100030000C9451000C9451000C9451000C945100FC
:100040000C9451000C9451000C9451000C945100EC
:100050000C9451000C9451000C9451000C945100DC
:100060000C9451000C94510011241FBECFEFD4E02A
:10007000DEBFCDBF11E0A0E0B1E0E4E9F2E002C0F4
:1000800005900D92A230B107D9F721E0A2E0B1E0CE
:1000900001C01D92A430B207E1F70E94BE000C948B
:1000A00048010C940000E1E6F0E080E880831082D3
:1000B00008951BB880E48AB981E884BD81E085BDDC
:1000C00082E887BD089587BD089587E880937A0008
:1000D000089515B88EE184B908952FE986E891E076
:1000E000215080409040E1F700C0000008958091C9
:1000F0007C00807F80937C0080917A008064809374
:100100007A0080917A0084FFFCCF80917A00806130
:1001100080937A0080917800909179000895809181
:1001200002019091030101969093030180930201D3
:10013000893A9146B8F00E94770020910001823BF5
:1001400033E0930710F0215004C08D39934018F428
:100150002F5F209300018091000187BD1092030161
:10016000109202010895811102C02C9801C02C9AAE
:100170002A9A2A9808952B9A2B9808950E94530042
:100180000E94590087E880937A000E9469002FE955
:1001900086E891E0215080409040E1F700C00000E7
:1001A00081E00E94B30081E00E94B30080E00E94E1
:1001B000B30081E00E94B30080E00E94B30081E0C0
:1001C0000E94B30081E00E94B30080E00E94B3006F
:1001D00080E00E94B30081E00E94B30080E00E94B2
:1001E000B30080E00E94B30081E00E94B30081E090
:1001F0000E94B30081E00E94B30080E00E94B3003F
:1002000081E00E94B30081E00E94B30080E00E9480
:10021000B30080E00E94B30081E00E94B30080E060
:100220000E94B30080E00E94B30081E00E94B3000E
:1002300081E00E94B30081E00E94B30080E00E9450
:10024000B30081E00E94B30081E00E94B30081E02E
:100250000E94B30081E00E94B30080E00E94B300DE
:1002600081E00E94B30080E00E94B30081E00E9420
:10027000B30081E00E94B30080E00E94B30080E000
:100280000E94B30080E00E94B3000E94BB00FFCF39
:04029000F894FFCF10
:020294008200E6
:00000001FF
